{
  "contractName": "Dex",
  "abi": [
    {
      "anonymous": false,
      "inputs": [
        {
          "indexed": true,
          "internalType": "address",
          "name": "previousOwner",
          "type": "address"
        },
        {
          "indexed": true,
          "internalType": "address",
          "name": "newOwner",
          "type": "address"
        }
      ],
      "name": "OwnershipTransferred",
      "type": "event"
    },
    {
      "inputs": [
        {
          "internalType": "bytes32",
          "name": "ticker",
          "type": "bytes32"
        },
        {
          "internalType": "address",
          "name": "tokenAddress",
          "type": "address"
        }
      ],
      "name": "addToken",
      "outputs": [],
      "stateMutability": "nonpayable",
      "type": "function"
    },
    {
      "inputs": [
        {
          "internalType": "address",
          "name": "",
          "type": "address"
        },
        {
          "internalType": "bytes32",
          "name": "",
          "type": "bytes32"
        }
      ],
      "name": "balances",
      "outputs": [
        {
          "internalType": "uint256",
          "name": "",
          "type": "uint256"
        }
      ],
      "stateMutability": "view",
      "type": "function",
      "constant": true
    },
    {
      "inputs": [
        {
          "internalType": "uint256",
          "name": "amount",
          "type": "uint256"
        },
        {
          "internalType": "bytes32",
          "name": "ticker",
          "type": "bytes32"
        }
      ],
      "name": "deposit",
      "outputs": [],
      "stateMutability": "nonpayable",
      "type": "function"
    },
    {
      "inputs": [],
      "name": "nextOrderId",
      "outputs": [
        {
          "internalType": "uint256",
          "name": "",
          "type": "uint256"
        }
      ],
      "stateMutability": "view",
      "type": "function",
      "constant": true
    },
    {
      "inputs": [
        {
          "internalType": "bytes32",
          "name": "",
          "type": "bytes32"
        },
        {
          "internalType": "uint256",
          "name": "",
          "type": "uint256"
        },
        {
          "internalType": "uint256",
          "name": "",
          "type": "uint256"
        }
      ],
      "name": "orderBook",
      "outputs": [
        {
          "internalType": "uint256",
          "name": "id",
          "type": "uint256"
        },
        {
          "internalType": "address",
          "name": "trader",
          "type": "address"
        },
        {
          "internalType": "enum Dex.Side",
          "name": "side",
          "type": "uint8"
        },
        {
          "internalType": "bytes32",
          "name": "ticker",
          "type": "bytes32"
        },
        {
          "internalType": "uint256",
          "name": "amount",
          "type": "uint256"
        },
        {
          "internalType": "uint256",
          "name": "price",
          "type": "uint256"
        }
      ],
      "stateMutability": "view",
      "type": "function",
      "constant": true
    },
    {
      "inputs": [],
      "name": "owner",
      "outputs": [
        {
          "internalType": "address",
          "name": "",
          "type": "address"
        }
      ],
      "stateMutability": "view",
      "type": "function",
      "constant": true
    },
    {
      "inputs": [],
      "name": "renounceOwnership",
      "outputs": [],
      "stateMutability": "nonpayable",
      "type": "function"
    },
    {
      "inputs": [
        {
          "internalType": "uint256",
          "name": "",
          "type": "uint256"
        }
      ],
      "name": "tokenList",
      "outputs": [
        {
          "internalType": "bytes32",
          "name": "",
          "type": "bytes32"
        }
      ],
      "stateMutability": "view",
      "type": "function",
      "constant": true
    },
    {
      "inputs": [
        {
          "internalType": "bytes32",
          "name": "",
          "type": "bytes32"
        }
      ],
      "name": "tokenMapping",
      "outputs": [
        {
          "internalType": "bytes32",
          "name": "ticker",
          "type": "bytes32"
        },
        {
          "internalType": "address",
          "name": "tokenAddress",
          "type": "address"
        }
      ],
      "stateMutability": "view",
      "type": "function",
      "constant": true
    },
    {
      "inputs": [
        {
          "internalType": "address",
          "name": "newOwner",
          "type": "address"
        }
      ],
      "name": "transferOwnership",
      "outputs": [],
      "stateMutability": "nonpayable",
      "type": "function"
    },
    {
      "inputs": [
        {
          "internalType": "uint256",
          "name": "amount",
          "type": "uint256"
        },
        {
          "internalType": "bytes32",
          "name": "ticker",
          "type": "bytes32"
        }
      ],
      "name": "withdraw",
      "outputs": [],
      "stateMutability": "nonpayable",
      "type": "function"
    },
    {
      "inputs": [
        {
          "internalType": "bytes32",
          "name": "ticker",
          "type": "bytes32"
        },
        {
          "internalType": "enum Dex.Side",
          "name": "side",
          "type": "uint8"
        }
      ],
      "name": "getOrderBook",
      "outputs": [
        {
          "components": [
            {
              "internalType": "uint256",
              "name": "id",
              "type": "uint256"
            },
            {
              "internalType": "address",
              "name": "trader",
              "type": "address"
            },
            {
              "internalType": "enum Dex.Side",
              "name": "side",
              "type": "uint8"
            },
            {
              "internalType": "bytes32",
              "name": "ticker",
              "type": "bytes32"
            },
            {
              "internalType": "uint256",
              "name": "amount",
              "type": "uint256"
            },
            {
              "internalType": "uint256",
              "name": "price",
              "type": "uint256"
            }
          ],
          "internalType": "struct Dex.Order[]",
          "name": "",
          "type": "tuple[]"
        }
      ],
      "stateMutability": "view",
      "type": "function",
      "constant": true
    },
    {
      "inputs": [],
      "name": "depositEth",
      "outputs": [],
      "stateMutability": "payable",
      "type": "function",
      "payable": true
    },
    {
      "inputs": [
        {
          "internalType": "enum Dex.Side",
          "name": "side",
          "type": "uint8"
        },
        {
          "internalType": "bytes32",
          "name": "ticker",
          "type": "bytes32"
        },
        {
          "internalType": "uint256",
          "name": "amount",
          "type": "uint256"
        },
        {
          "internalType": "uint256",
          "name": "price",
          "type": "uint256"
        }
      ],
      "name": "createLimitOrder",
      "outputs": [],
      "stateMutability": "nonpayable",
      "type": "function"
    }
  ],
  "bytecode": "0x6080604052600060045534801561001557600080fd5b5061003261002761003760201b60201c565b61003f60201b60201c565b610103565b600033905090565b60008060009054906101000a900473ffffffffffffffffffffffffffffffffffffffff169050816000806101000a81548173ffffffffffffffffffffffffffffffffffffffff021916908373ffffffffffffffffffffffffffffffffffffffff1602179055508173ffffffffffffffffffffffffffffffffffffffff168173ffffffffffffffffffffffffffffffffffffffff167f8be0079c531659141344cd1fd0a4f28419497f9722a3daafe3b4186f6b6457e060405160405180910390a35050565b61232280620001136000396000f3fe6080604052600436106100dd5760003560e01c80638da5cb5b1161007f578063a8d2021a11610059578063a8d2021a146102a5578063ba58ea68146102ce578063c9630cb01461030b578063f2fde38b14610334576100dd565b80638da5cb5b146102145780639776aacf1461023f5780639ead722214610268576100dd565b8063439370b1116100bb578063439370b11461018c578063667cb4ba146101965780636f3b62f9146101d4578063715018a6146101fd576100dd565b80630bb431b6146100e25780631f14df69146101245780632a58b33014610161575b600080fd5b3480156100ee57600080fd5b50610109600480360381019061010491906118fc565b61035d565b60405161011b96959493929190611a25565b60405180910390f35b34801561013057600080fd5b5061014b60048036038101906101469190611ab2565b6103f0565b6040516101589190611af2565b60405180910390f35b34801561016d57600080fd5b50610176610415565b6040516101839190611af2565b60405180910390f35b61019461041b565b005b3480156101a257600080fd5b506101bd60048036038101906101b89190611b0d565b610514565b6040516101cb929190611b3a565b60405180910390f35b3480156101e057600080fd5b506101fb60048036038101906101f69190611b88565b610558565b005b34801561020957600080fd5b50610212610f42565b005b34801561022057600080fd5b50610229610f56565b6040516102369190611bef565b60405180910390f35b34801561024b57600080fd5b5061026660048036038101906102619190611c0a565b610f7f565b005b34801561027457600080fd5b5061028f600480360381019061028a9190611c4a565b611046565b60405161029c9190611c77565b60405180910390f35b3480156102b157600080fd5b506102cc60048036038101906102c79190611c92565b61106a565b005b3480156102da57600080fd5b506102f560048036038101906102f09190611cd2565b611314565b6040516103029190611e78565b60405180910390f35b34801561031757600080fd5b50610332600480360381019061032d9190611c92565b611463565b005b34801561034057600080fd5b5061035b60048036038101906103569190611e9a565b61167c565b005b6005602052826000526040600020602052816000526040600020818154811061038557600080fd5b906000526020600020906005020160009250925050508060000154908060010160009054906101000a900473ffffffffffffffffffffffffffffffffffffffff16908060010160149054906101000a900460ff16908060020154908060030154908060040154905086565b6003602052816000526040600020602052806000526040600020600091509150505481565b60045481565b61049e34600360003373ffffffffffffffffffffffffffffffffffffffff1673ffffffffffffffffffffffffffffffffffffffff16815260200190815260200160002060007f45544800000000000000000000000000000000000000000000000000000000008152602001908152602001600020546116ff90919063ffffffff16565b600360003373ffffffffffffffffffffffffffffffffffffffff1673ffffffffffffffffffffffffffffffffffffffff16815260200190815260200160002060007f4554480000000000000000000000000000000000000000000000000000000000815260200190815260200160002081905550565b60016020528060005260406000206000915090508060000154908060010160009054906101000a900473ffffffffffffffffffffffffffffffffffffffff16905082565b6000600181111561056c5761056b61199f565b5b84600181111561057f5761057e61199f565b5b0361061857610597818361171590919063ffffffff16565b600360003373ffffffffffffffffffffffffffffffffffffffff1673ffffffffffffffffffffffffffffffffffffffff16815260200190815260200160002060007f4554480000000000000000000000000000000000000000000000000000000000815260200190815260200160002054101561061357600080fd5b6106a2565b60018081111561062b5761062a61199f565b5b84600181111561063e5761063d61199f565b5b036106a15781600360003373ffffffffffffffffffffffffffffffffffffffff1673ffffffffffffffffffffffffffffffffffffffff16815260200190815260200160002060008581526020019081526020016000205410156106a057600080fd5b5b5b60006005600085815260200190815260200160002060008660018111156106cc576106cb61199f565b5b81526020019081526020016000209050806040518060c0016040528060045481526020013373ffffffffffffffffffffffffffffffffffffffff16815260200187600181111561071f5761071e61199f565b5b81526020018681526020018581526020018481525090806001815401808255809150506001900390600052602060002090600502016000909190919091506000820151816000015560208201518160010160006101000a81548173ffffffffffffffffffffffffffffffffffffffff021916908373ffffffffffffffffffffffffffffffffffffffff16021790555060408201518160010160146101000a81548160ff021916908360018111156107d9576107d861199f565b5b0217905550606082015181600201556080820151816003015560a082015181600401555050600080828054905011610812576000610824565b600182805490506108239190611ef6565b5b90506000600181111561083a5761083961199f565b5b86600181111561084d5761084c61199f565b5b03610ba6575b6000811115610ba15781818154811061086f5761086e611f2a565b5b9060005260206000209060050201600401548260018361088f9190611ef6565b815481106108a05761089f611f2a565b5b90600052602060002090600502016004015411610ba1576000826001836108c79190611ef6565b815481106108d8576108d7611f2a565b5b90600052602060002090600502016040518060c0016040529081600082015481526020016001820160009054906101000a900473ffffffffffffffffffffffffffffffffffffffff1673ffffffffffffffffffffffffffffffffffffffff1673ffffffffffffffffffffffffffffffffffffffff1681526020016001820160149054906101000a900460ff1660018111156109765761097561199f565b5b60018111156109885761098761199f565b5b8152602001600282015481526020016003820154815260200160048201548152505090508282815481106109bf576109be611f2a565b5b9060005260206000209060050201836001846109db9190611ef6565b815481106109ec576109eb611f2a565b5b9060005260206000209060050201600082015481600001556001820160009054906101000a900473ffffffffffffffffffffffffffffffffffffffff168160010160006101000a81548173ffffffffffffffffffffffffffffffffffffffff021916908373ffffffffffffffffffffffffffffffffffffffff1602179055506001820160149054906101000a900460ff168160010160146101000a81548160ff02191690836001811115610aa357610aa261199f565b5b021790555060028201548160020155600382015481600301556004820154816004015590505080838381548110610add57610adc611f2a565b5b90600052602060002090600502016000820151816000015560208201518160010160006101000a81548173ffffffffffffffffffffffffffffffffffffffff021916908373ffffffffffffffffffffffffffffffffffffffff16021790555060408201518160010160146101000a81548160ff02191690836001811115610b6757610b6661199f565b5b0217905550606082015181600201556080820151816003015560a082015181600401559050508180610b9890611f59565b92505050610853565b610f22565b600180811115610bb957610bb861199f565b5b866001811115610bcc57610bcb61199f565b5b03610f21575b6000811115610f2057818181548110610bee57610bed611f2a565b5b90600052602060002090600502016004015482600183610c0e9190611ef6565b81548110610c1f57610c1e611f2a565b5b90600052602060002090600502016004015410610f2057600082600183610c469190611ef6565b81548110610c5757610c56611f2a565b5b90600052602060002090600502016040518060c0016040529081600082015481526020016001820160009054906101000a900473ffffffffffffffffffffffffffffffffffffffff1673ffffffffffffffffffffffffffffffffffffffff1673ffffffffffffffffffffffffffffffffffffffff1681526020016001820160149054906101000a900460ff166001811115610cf557610cf461199f565b5b6001811115610d0757610d0661199f565b5b815260200160028201548152602001600382015481526020016004820154815250509050828281548110610d3e57610d3d611f2a565b5b906000526020600020906005020183600184610d5a9190611ef6565b81548110610d6b57610d6a611f2a565b5b9060005260206000209060050201600082015481600001556001820160009054906101000a900473ffffffffffffffffffffffffffffffffffffffff168160010160006101000a81548173ffffffffffffffffffffffffffffffffffffffff021916908373ffffffffffffffffffffffffffffffffffffffff1602179055506001820160149054906101000a900460ff168160010160146101000a81548160ff02191690836001811115610e2257610e2161199f565b5b021790555060028201548160020155600382015481600301556004820154816004015590505080838381548110610e5c57610e5b611f2a565b5b90600052602060002090600502016000820151816000015560208201518160010160006101000a81548173ffffffffffffffffffffffffffffffffffffffff021916908373ffffffffffffffffffffffffffffffffffffffff16021790555060408201518160010160146101000a81548160ff02191690836001811115610ee657610ee561199f565b5b0217905550606082015181600201556080820151816003015560a082015181600401559050508180610f1790611f59565b92505050610bd2565b5b5b60046000815480929190610f3590611f82565b9190505550505050505050565b610f4a61172b565b610f5460006117a9565b565b60008060009054906101000a900473ffffffffffffffffffffffffffffffffffffffff16905090565b610f8761172b565b60405180604001604052808381526020018273ffffffffffffffffffffffffffffffffffffffff16815250600160008481526020019081526020016000206000820151816000015560208201518160010160006101000a81548173ffffffffffffffffffffffffffffffffffffffff021916908373ffffffffffffffffffffffffffffffffffffffff16021790555090505060028290806001815401808255809150506001900390600052602060002001600090919091909150555050565b6002818154811061105657600080fd5b906000526020600020016000915090505481565b80600073ffffffffffffffffffffffffffffffffffffffff166001600083815260200190815260200160002060010160009054906101000a900473ffffffffffffffffffffffffffffffffffffffff1673ffffffffffffffffffffffffffffffffffffffff1603611110576040517f08c379a000000000000000000000000000000000000000000000000000000000815260040161110790612027565b60405180910390fd5b82600360003373ffffffffffffffffffffffffffffffffffffffff1673ffffffffffffffffffffffffffffffffffffffff16815260200190815260200160002060008481526020019081526020016000205410156111a3576040517f08c379a000000000000000000000000000000000000000000000000000000000815260040161119a90612093565b60405180910390fd5b61120683600360003373ffffffffffffffffffffffffffffffffffffffff1673ffffffffffffffffffffffffffffffffffffffff16815260200190815260200160002060008581526020019081526020016000205461186d90919063ffffffff16565b600360003373ffffffffffffffffffffffffffffffffffffffff1673ffffffffffffffffffffffffffffffffffffffff1681526020019081526020016000206000848152602001908152602001600020819055506001600083815260200190815260200160002060010160009054906101000a900473ffffffffffffffffffffffffffffffffffffffff1673ffffffffffffffffffffffffffffffffffffffff1663a9059cbb33856040518363ffffffff1660e01b81526004016112cb9291906120b3565b6020604051808303816000875af11580156112ea573d6000803e3d6000fd5b505050506040513d601f19601f8201168201806040525081019061130e9190612114565b50505050565b606060056000848152602001908152602001600020600083600181111561133e5761133d61199f565b5b8152602001908152602001600020805480602002602001604051908101604052809291908181526020016000905b8282101561145757838290600052602060002090600502016040518060c0016040529081600082015481526020016001820160009054906101000a900473ffffffffffffffffffffffffffffffffffffffff1673ffffffffffffffffffffffffffffffffffffffff1673ffffffffffffffffffffffffffffffffffffffff1681526020016001820160149054906101000a900460ff1660018111156114145761141361199f565b5b60018111156114265761142561199f565b5b815260200160028201548152602001600382015481526020016004820154815250508152602001906001019061136c565b50505050905092915050565b80600073ffffffffffffffffffffffffffffffffffffffff166001600083815260200190815260200160002060010160009054906101000a900473ffffffffffffffffffffffffffffffffffffffff1673ffffffffffffffffffffffffffffffffffffffff1603611509576040517f08c379a000000000000000000000000000000000000000000000000000000000815260040161150090612027565b60405180910390fd5b6001600083815260200190815260200160002060010160009054906101000a900473ffffffffffffffffffffffffffffffffffffffff1673ffffffffffffffffffffffffffffffffffffffff166323b872dd3330866040518463ffffffff1660e01b815260040161157c93929190612141565b6020604051808303816000875af115801561159b573d6000803e3d6000fd5b505050506040513d601f19601f820116820180604052508101906115bf9190612114565b5061162383600360003373ffffffffffffffffffffffffffffffffffffffff1673ffffffffffffffffffffffffffffffffffffffff1681526020019081526020016000206000858152602001908152602001600020546116ff90919063ffffffff16565b600360003373ffffffffffffffffffffffffffffffffffffffff1673ffffffffffffffffffffffffffffffffffffffff168152602001908152602001600020600084815260200190815260200160002081905550505050565b61168461172b565b600073ffffffffffffffffffffffffffffffffffffffff168173ffffffffffffffffffffffffffffffffffffffff16036116f3576040517f08c379a00000000000000000000000000000000000000000000000000000000081526004016116ea906121ea565b60405180910390fd5b6116fc816117a9565b50565b6000818361170d919061220a565b905092915050565b60008183611723919061223e565b905092915050565b611733611883565b73ffffffffffffffffffffffffffffffffffffffff16611751610f56565b73ffffffffffffffffffffffffffffffffffffffff16146117a7576040517f08c379a000000000000000000000000000000000000000000000000000000000815260040161179e906122cc565b60405180910390fd5b565b60008060009054906101000a900473ffffffffffffffffffffffffffffffffffffffff169050816000806101000a81548173ffffffffffffffffffffffffffffffffffffffff021916908373ffffffffffffffffffffffffffffffffffffffff1602179055508173ffffffffffffffffffffffffffffffffffffffff168173ffffffffffffffffffffffffffffffffffffffff167f8be0079c531659141344cd1fd0a4f28419497f9722a3daafe3b4186f6b6457e060405160405180910390a35050565b6000818361187b9190611ef6565b905092915050565b600033905090565b600080fd5b6000819050919050565b6118a381611890565b81146118ae57600080fd5b50565b6000813590506118c08161189a565b92915050565b6000819050919050565b6118d9816118c6565b81146118e457600080fd5b50565b6000813590506118f6816118d0565b92915050565b6000806000606084860312156119155761191461188b565b5b6000611923868287016118b1565b9350506020611934868287016118e7565b9250506040611945868287016118e7565b9150509250925092565b611958816118c6565b82525050565b600073ffffffffffffffffffffffffffffffffffffffff82169050919050565b60006119898261195e565b9050919050565b6119998161197e565b82525050565b7f4e487b7100000000000000000000000000000000000000000000000000000000600052602160045260246000fd5b600281106119df576119de61199f565b5b50565b60008190506119f0826119ce565b919050565b6000611a00826119e2565b9050919050565b611a10816119f5565b82525050565b611a1f81611890565b82525050565b600060c082019050611a3a600083018961194f565b611a476020830188611990565b611a546040830187611a07565b611a616060830186611a16565b611a6e608083018561194f565b611a7b60a083018461194f565b979650505050505050565b611a8f8161197e565b8114611a9a57600080fd5b50565b600081359050611aac81611a86565b92915050565b60008060408385031215611ac957611ac861188b565b5b6000611ad785828601611a9d565b9250506020611ae8858286016118b1565b9150509250929050565b6000602082019050611b07600083018461194f565b92915050565b600060208284031215611b2357611b2261188b565b5b6000611b31848285016118b1565b91505092915050565b6000604082019050611b4f6000830185611a16565b611b5c6020830184611990565b9392505050565b60028110611b7057600080fd5b50565b600081359050611b8281611b63565b92915050565b60008060008060808587031215611ba257611ba161188b565b5b6000611bb087828801611b73565b9450506020611bc1878288016118b1565b9350506040611bd2878288016118e7565b9250506060611be3878288016118e7565b91505092959194509250565b6000602082019050611c046000830184611990565b92915050565b60008060408385031215611c2157611c2061188b565b5b6000611c2f858286016118b1565b9250506020611c4085828601611a9d565b9150509250929050565b600060208284031215611c6057611c5f61188b565b5b6000611c6e848285016118e7565b91505092915050565b6000602082019050611c8c6000830184611a16565b92915050565b60008060408385031215611ca957611ca861188b565b5b6000611cb7858286016118e7565b9250506020611cc8858286016118b1565b9150509250929050565b60008060408385031215611ce957611ce861188b565b5b6000611cf7858286016118b1565b9250506020611d0885828601611b73565b9150509250929050565b600081519050919050565b600082825260208201905092915050565b6000819050602082019050919050565b611d47816118c6565b82525050565b611d568161197e565b82525050565b611d65816119f5565b82525050565b611d7481611890565b82525050565b60c082016000820151611d906000850182611d3e565b506020820151611da36020850182611d4d565b506040820151611db66040850182611d5c565b506060820151611dc96060850182611d6b565b506080820151611ddc6080850182611d3e565b5060a0820151611def60a0850182611d3e565b50505050565b6000611e018383611d7a565b60c08301905092915050565b6000602082019050919050565b6000611e2582611d12565b611e2f8185611d1d565b9350611e3a83611d2e565b8060005b83811015611e6b578151611e528882611df5565b9750611e5d83611e0d565b925050600181019050611e3e565b5085935050505092915050565b60006020820190508181036000830152611e928184611e1a565b905092915050565b600060208284031215611eb057611eaf61188b565b5b6000611ebe84828501611a9d565b91505092915050565b7f4e487b7100000000000000000000000000000000000000000000000000000000600052601160045260246000fd5b6000611f01826118c6565b9150611f0c836118c6565b9250828203905081811115611f2457611f23611ec7565b5b92915050565b7f4e487b7100000000000000000000000000000000000000000000000000000000600052603260045260246000fd5b6000611f64826118c6565b915060008203611f7757611f76611ec7565b5b600182039050919050565b6000611f8d826118c6565b91507fffffffffffffffffffffffffffffffffffffffffffffffffffffffffffffffff8203611fbf57611fbe611ec7565b5b600182019050919050565b600082825260208201905092915050565b7f546f6b656e20646f6573206e6f74206578697374000000000000000000000000600082015250565b6000612011601483611fca565b915061201c82611fdb565b602082019050919050565b6000602082019050818103600083015261204081612004565b9050919050565b7f42616c616e6365206e6f742073756666696369656e7400000000000000000000600082015250565b600061207d601683611fca565b915061208882612047565b602082019050919050565b600060208201905081810360008301526120ac81612070565b9050919050565b60006040820190506120c86000830185611990565b6120d5602083018461194f565b9392505050565b60008115159050919050565b6120f1816120dc565b81146120fc57600080fd5b50565b60008151905061210e816120e8565b92915050565b60006020828403121561212a5761212961188b565b5b6000612138848285016120ff565b91505092915050565b60006060820190506121566000830186611990565b6121636020830185611990565b612170604083018461194f565b949350505050565b7f4f776e61626c653a206e6577206f776e657220697320746865207a65726f206160008201527f6464726573730000000000000000000000000000000000000000000000000000602082015250565b60006121d4602683611fca565b91506121df82612178565b604082019050919050565b60006020820190508181036000830152612203816121c7565b9050919050565b6000612215826118c6565b9150612220836118c6565b925082820190508082111561223857612237611ec7565b5b92915050565b6000612249826118c6565b9150612254836118c6565b9250828202612262816118c6565b9150828204841483151761227957612278611ec7565b5b5092915050565b7f4f776e61626c653a2063616c6c6572206973206e6f7420746865206f776e6572600082015250565b60006122b6602083611fca565b91506122c182612280565b602082019050919050565b600060208201905081810360008301526122e5816122a9565b905091905056fea26469706673582212201388ff57e3f261fbd368c3f0594e6479662b86b1af4039521e8aaea29aef66db64736f6c63430008110033",
  "immutableReferences": {},
  "source": "// SPDX-License-Identifier: GPL-3.0\n\npragma solidity >=0.7.0 <0.9.0;\npragma experimental ABIEncoderV2;\n\nimport \"./wallet.sol\";\n\ncontract Dex is Wallet {\n    using SafeMath for uint256;\n\n    enum Side {\n        Buy,\n        SELL\n    }\n\n    struct Order {\n        uint256 id;\n        address trader;\n        Side side;\n        bytes32 ticker;\n        uint256 amount;\n        uint256 price;\n    }\n\n    uint256 public nextOrderId = 0;\n\n    // to keep order book for each assest\n    // in first mapping bytes32 is the ticker of each asset\n    // the secound mapping uint parameter points to Side (BUY or SELL)\n    // Order[] is the order book\n    mapping(bytes32 => mapping(uint256 => Order[])) public orderBook;\n\n    // get list of order books based on ticker (asset name) and Side (BUY or SELL)\n    function getOrderBook(bytes32 ticker, Side side) public view returns (Order[] memory) {\n        return orderBook[ticker][uint256(side)];\n    }\n\n    function depositEth() public payable {\n        balances[msg.sender][bytes32(\"ETH\")] = balances[msg.sender][bytes32(\"ETH\")].add(msg.value);\n    }\n\n    function createLimitOrder(Side side, bytes32 ticker, uint256 amount, uint256 price) public {\n        if (side == Side.Buy) {\n            require(balances[msg.sender][\"ETH\"] >= amount.mul(price));\n        } else if (side == Side.SELL) {\n            require(balances[msg.sender][ticker] >= amount);\n        }\n\n        Order[] storage orders = orderBook[ticker][uint256(side)];\n        orders.push(\n            Order(nextOrderId, msg.sender, side, ticker, amount, price)\n        );\n\n        // using Bubble Sort algorithm to sort by price\n        // SELL is lowest to highest and BUY is highest to lowest\n        uint256 i = orders.length > 0 ? orders.length-1 : 0;\n\n        if (side == Side.Buy) {\n            // using WHILE  to check if it is not the very first element of the order book\n            while (i > 0) {\n                // check if price of i-1 order is higher that i order\n                if (orders[i-1].price > orders[i].price) {\n                    // if condition is true, then the book is sorted truely\n                    break;\n                }\n                // if order i price is higher than i-1 then must be swapped\n                // put i-1 order into a temperory variable (used memory) to use it for swapping\n                Order memory orderToMove = orders[i-1];\n                orders[i-1] = orders[i];\n                orders[i] = orderToMove;\n                i--;\n            }\n        } else if (side == Side.SELL) {\n            // using WHILE  to check if it is not the very first elemnt of the order book\n            while (i > 0) {\n                // check if price of i-1 order is lower that i order\n                if (orders[i-1].price < orders[i].price) {\n                    // if condition is true, then the book is sorted truely\n                    break;\n                }\n                // if order i price is lower than i-1 then must be swapped\n                // put i-1 order into a temperory variable (used memory) to use it for swapping\n                Order memory orderToMove = orders[i-1];\n                orders[i-1] = orders[i];\n                orders[i] = orderToMove;\n                i--;\n            }\n        }\n\n        nextOrderId++;\n    }\n}\n",
  "sourcePath": "/home/mine/Workspace/edu/blockchain/dex/contracts/dex.sol",
  "compiler": {
    "name": "solc",
    "version": "0.8.17+commit.8df45f5f.Emscripten.clang"
  },
  "schemaVersion": "3.4.10",
  "updatedAt": "2022-10-15T14:32:06.597Z",
  "networkType": "ethereum",
  "devdoc": {
    "kind": "dev",
    "methods": {
      "owner()": {
        "details": "Returns the address of the current owner."
      },
      "renounceOwnership()": {
        "details": "Leaves the contract without owner. It will not be possible to call `onlyOwner` functions anymore. Can only be called by the current owner. NOTE: Renouncing ownership will leave the contract without an owner, thereby removing any functionality that is only available to the owner."
      },
      "transferOwnership(address)": {
        "details": "Transfers ownership of the contract to a new account (`newOwner`). Can only be called by the current owner."
      }
    },
    "version": 1
  },
  "userdoc": {
    "kind": "user",
    "methods": {},
    "version": 1
  }
}