{
  "contractName": "Wallet",
  "abi": [
    {
      "inputs": [
        {
          "internalType": "address",
          "name": "",
          "type": "address"
        },
        {
          "internalType": "bytes32",
          "name": "",
          "type": "bytes32"
        }
      ],
      "name": "balances",
      "outputs": [
        {
          "internalType": "uint256",
          "name": "",
          "type": "uint256"
        }
      ],
      "stateMutability": "view",
      "type": "function"
    },
    {
      "inputs": [
        {
          "internalType": "uint256",
          "name": "",
          "type": "uint256"
        }
      ],
      "name": "tokenList",
      "outputs": [
        {
          "internalType": "bytes32",
          "name": "",
          "type": "bytes32"
        }
      ],
      "stateMutability": "view",
      "type": "function"
    },
    {
      "inputs": [
        {
          "internalType": "bytes32",
          "name": "",
          "type": "bytes32"
        }
      ],
      "name": "tokenMapping",
      "outputs": [
        {
          "internalType": "bytes32",
          "name": "ticker",
          "type": "bytes32"
        },
        {
          "internalType": "address",
          "name": "tokenAddress",
          "type": "address"
        }
      ],
      "stateMutability": "view",
      "type": "function"
    },
    {
      "inputs": [
        {
          "internalType": "bytes32",
          "name": "ticker",
          "type": "bytes32"
        },
        {
          "internalType": "address",
          "name": "tokenAddress",
          "type": "address"
        }
      ],
      "name": "addToken",
      "outputs": [],
      "stateMutability": "nonpayable",
      "type": "function"
    },
    {
      "inputs": [
        {
          "internalType": "uint256",
          "name": "amount",
          "type": "uint256"
        },
        {
          "internalType": "bytes32",
          "name": "ticker",
          "type": "bytes32"
        }
      ],
      "name": "deposit",
      "outputs": [],
      "stateMutability": "nonpayable",
      "type": "function"
    },
    {
      "inputs": [
        {
          "internalType": "uint256",
          "name": "amount",
          "type": "uint256"
        },
        {
          "internalType": "bytes32",
          "name": "ticker",
          "type": "bytes32"
        }
      ],
      "name": "withdraw",
      "outputs": [],
      "stateMutability": "nonpayable",
      "type": "function"
    }
  ],
  "bytecode": "0x608060405234801561001057600080fd5b506109dc806100206000396000f3fe608060405234801561001057600080fd5b50600436106100625760003560e01c80631f14df6914610067578063667cb4ba146100975780639776aacf146100c85780639ead7222146100e4578063a8d2021a14610114578063c9630cb014610130575b600080fd5b610081600480360381019061007c91906105f0565b61014c565b60405161008e9190610649565b60405180910390f35b6100b160048036038101906100ac9190610664565b610171565b6040516100bf9291906106af565b60405180910390f35b6100e260048036038101906100dd91906106d8565b6101b5565b005b6100fe60048036038101906100f99190610744565b610273565b60405161010b9190610771565b60405180910390f35b61012e6004803603810190610129919061078c565b610297565b005b61014a6004803603810190610145919061078c565b61053d565b005b6002602052816000526040600020602052806000526040600020600091509150505481565b60006020528060005260406000206000915090508060000154908060010160009054906101000a900473ffffffffffffffffffffffffffffffffffffffff16905082565b60405180604001604052808381526020018273ffffffffffffffffffffffffffffffffffffffff168152506000808481526020019081526020016000206000820151816000015560208201518160010160006101000a81548173ffffffffffffffffffffffffffffffffffffffff021916908373ffffffffffffffffffffffffffffffffffffffff16021790555090505060018290806001815401808255809150506001900390600052602060002001600090919091909150555050565b6001818154811061028357600080fd5b906000526020600020016000915090505481565b600073ffffffffffffffffffffffffffffffffffffffff1660008083815260200190815260200160002060010160009054906101000a900473ffffffffffffffffffffffffffffffffffffffff1673ffffffffffffffffffffffffffffffffffffffff160361033b576040517f08c379a000000000000000000000000000000000000000000000000000000000815260040161033290610829565b60405180910390fd5b81600260003373ffffffffffffffffffffffffffffffffffffffff1673ffffffffffffffffffffffffffffffffffffffff16815260200190815260200160002060008381526020019081526020016000205410156103ce576040517f08c379a00000000000000000000000000000000000000000000000000000000081526004016103c590610895565b60405180910390fd5b61043182600260003373ffffffffffffffffffffffffffffffffffffffff1673ffffffffffffffffffffffffffffffffffffffff16815260200190815260200160002060008481526020019081526020016000205461054190919063ffffffff16565b600260003373ffffffffffffffffffffffffffffffffffffffff1673ffffffffffffffffffffffffffffffffffffffff16815260200190815260200160002060008381526020019081526020016000208190555060008082815260200190815260200160002060010160009054906101000a900473ffffffffffffffffffffffffffffffffffffffff1673ffffffffffffffffffffffffffffffffffffffff1663a9059cbb33846040518363ffffffff1660e01b81526004016104f59291906108b5565b6020604051808303816000875af1158015610514573d6000803e3d6000fd5b505050506040513d601f19601f820116820180604052508101906105389190610916565b505050565b5050565b6000818361054f9190610972565b905092915050565b600080fd5b600073ffffffffffffffffffffffffffffffffffffffff82169050919050565b60006105878261055c565b9050919050565b6105978161057c565b81146105a257600080fd5b50565b6000813590506105b48161058e565b92915050565b6000819050919050565b6105cd816105ba565b81146105d857600080fd5b50565b6000813590506105ea816105c4565b92915050565b6000806040838503121561060757610606610557565b5b6000610615858286016105a5565b9250506020610626858286016105db565b9150509250929050565b6000819050919050565b61064381610630565b82525050565b600060208201905061065e600083018461063a565b92915050565b60006020828403121561067a57610679610557565b5b6000610688848285016105db565b91505092915050565b61069a816105ba565b82525050565b6106a98161057c565b82525050565b60006040820190506106c46000830185610691565b6106d160208301846106a0565b9392505050565b600080604083850312156106ef576106ee610557565b5b60006106fd858286016105db565b925050602061070e858286016105a5565b9150509250929050565b61072181610630565b811461072c57600080fd5b50565b60008135905061073e81610718565b92915050565b60006020828403121561075a57610759610557565b5b60006107688482850161072f565b91505092915050565b60006020820190506107866000830184610691565b92915050565b600080604083850312156107a3576107a2610557565b5b60006107b18582860161072f565b92505060206107c2858286016105db565b9150509250929050565b600082825260208201905092915050565b7f546f6b656e20446f6573206e6f74206578697374000000000000000000000000600082015250565b60006108136014836107cc565b915061081e826107dd565b602082019050919050565b6000602082019050818103600083015261084281610806565b9050919050565b7f42616c616e6365206e6f742073756666696369656e7400000000000000000000600082015250565b600061087f6016836107cc565b915061088a82610849565b602082019050919050565b600060208201905081810360008301526108ae81610872565b9050919050565b60006040820190506108ca60008301856106a0565b6108d7602083018461063a565b9392505050565b60008115159050919050565b6108f3816108de565b81146108fe57600080fd5b50565b600081519050610910816108ea565b92915050565b60006020828403121561092c5761092b610557565b5b600061093a84828501610901565b91505092915050565b7f4e487b7100000000000000000000000000000000000000000000000000000000600052601160045260246000fd5b600061097d82610630565b915061098883610630565b92508282039050818111156109a05761099f610943565b5b9291505056fea26469706673582212202460015b3c49eb863737c3bdfeb8c33b1817422892e101e671c218876f177eb964736f6c63430008110033",
  "immutableReferences": {},
  "source": "// SPDX-License-Identifier: GPL-3.0\n\npragma solidity >=0.7.0 <0.9.0;\n\nimport \"../node_modules/@openzeppelin/contracts/token/ERC20/IERC20.sol\";\nimport \"../node_modules/@openzeppelin/contracts/utils/math/SafeMath.sol\";\n\ncontract Wallet {\n    using SafeMath for uint256;\n\n    struct Token {\n        bytes32 ticker; // token identifier\n        address tokenAddress;\n    }\n\n    // keeping list of tokens with full details\n    mapping(bytes32 => Token) public tokenMapping;\n    // add token tickers in a list\n    bytes32[] public tokenList;\n\n    // need double mapping for multiple balances\n    mapping(address => mapping(bytes32 => uint256)) public balances;\n    \n    function addToken(bytes32 ticker, address tokenAddress) external {\n        // create new token\n        tokenMapping[ticker] = Token(ticker, tokenAddress);\n\n        // add to token list\n        tokenList.push(ticker);\n    }\n\n    function deposit(uint amount, bytes32 ticker) external {\n\n    }\n\n    function withdraw(uint amount, bytes32 ticker) external {\n        // check if token exists\n        require(tokenMapping[ticker].tokenAddress != address(0), \"Token Does not exist\");\n        // check if user balance is enough\n        require(balances[msg.sender][ticker] >= amount, \"Balance not sufficient\");\n\n        // decrease amount from user wallet balance\n        // balance kept in a bouble mapping\n        balances[msg.sender][ticker] = balances[msg.sender][ticker].sub(amount);\n\n        // sending specified token (tokenMapping[ticker].tokenAddress) to the user (msg.sender) with specified amount\n        IERC20(tokenMapping[ticker].tokenAddress).transfer(msg.sender, amount);\n    }\n}",
  "sourcePath": "/home/mine/Workspace/edu/blockchain/dex/contracts/wallet.sol",
  "compiler": {
    "name": "solc",
    "version": "0.8.17+commit.8df45f5f.Emscripten.clang"
  },
  "schemaVersion": "3.4.10",
  "updatedAt": "2022-10-12T10:02:59.076Z",
  "devdoc": {
    "kind": "dev",
    "methods": {},
    "version": 1
  },
  "userdoc": {
    "kind": "user",
    "methods": {},
    "version": 1
  }
}